:100000000C94FD070C9444080C9444080C94A90922
:100010000C9444080C9444080C9444080C94440830
:100020000C9444080C9444080C94F72C0C94C92D9F
:100030000C9477280C9444080C9444080C944408BD
:100040000C9444080C9444080C9444080C94440800
:100050000C9444080C94DF280C9444080C94440835
:100060000C9444080C9444080C9444080C944408E0
:100070000C9444080C9444080C9444080C944408D0
:100080000C9444080C9444080C9444080C944408C0
:100090000C9497080C9444080C9444080C9444085D
:1000A0000C9444080C9444080C944408E512E7129C
:1000B000F212E912EB12ED12EF12F112F412F61233
:1000C000F8120313FA12FC12FE12001302130513A6
:1000D0001A1F1A1F4C1F4C1FAE20AE20AE20AE20A0
:1000E0008C1FAE202F202F209E20AE20AE20A720D8
:1000F0003C203C203C203C203C203C203C203C2020
:100100003C203C203C203C203C203C203C203C200F
:100110004B2059206020672071203521352147214F
:1001200047213E21472147214721352135214321C0
:10013000472147214321362E5D2E552F5D2E552F09
:10014000A92ECC2E552F232F322F07634236B79B73
:10015000D8A71A39685618AEBAAB558C1D3CB7CC27
:100160005763BD6DEDFD753EF6177231BF0000009F
:10017000803F05A84CCDB2D44EB93836A9020C50F8
:10018000B9918688083CA6AAAA2ABE000000803F32
:100190000000000000003E5B4F5B3E003E6B4F6B7B
:1001A0003E001C3E7C3E1C00183C7E3C18001C5748
:1001B0007D571C001C5E7F5E1C0000183C18000070
:1001C000FFE7C3E7FF00001824180000FFE7DBE7A4
:1001D000FF0030483A060E00262979292600407F84
:1001E00005050700407F05253F005A3CE73C5A00C3
:1001F0007F3E1C1C0800081C1C3E7F0014227F222E
:1002000014005F5F005F5F0006097F017F000066EA
:1002100089956A0060606060600094A2FFA294000B
:1002200008047E04080010207E20100008082A1C04
:100230000800081C2A0808001E10101010000C1ED0
:100240000C1E0C0030383E383000060E3E0E060004
:1002500000000000000000005F0000000007000731
:100260000000147F147F1400242A7F2A1200231315
:100270000864620036495620500000080703000059
:10028000001C224100000041221C00002A1C7F1C8F
:100290002A0008083E0808000080703000000808A6
:1002A0000808080000006060000020100804020038
:1002B0003E5149453E0000427F4000007249494995
:1002C00046002141494D33001814127F1000274584
:1002D000454539003C4A494931004121110907008F
:1002E000364949493600464949291E000000140094
:1002F00000000040340000000008142241001414E3
:1003000014141400004122140800020159090600C7
:100310003E415D594E007C1211127C007F494949D3
:1003200036003E41414122007F4141413E007F492C
:10033000494941007F09090901003E4141517300CB
:100340007F0808087F0000417F4100002040413FB6
:1003500001007F08142241007F40404040007F029E
:100360001C027F007F0408107F003E4141413E0097
:100370007F09090906003E4151215E007F091929C4
:10038000460026494949320003017F0103003F40EE
:1003900040403F001F2040201F003F4038403F00AA
:1003A0006314081463000304780403006159494D81
:1003B0004300007F41414100020408102000004139
:1003C00041417F00040201020400404040404000DF
:1003D0000003070800002054547840007F2844445C
:1003E0003800384444442800384444287F003854B6
:1003F0005454180000087E0902001824241C7800B8
:100400007F080404780000447D4000002040403D07
:1004100000007F102844000000417F4000007C0461
:10042000780478007C080404780038444444380098
:100430007C1824241800182424187C007C08040448
:10044000080048545454240004043F4424003C4011
:1004500040207C001C2040201C003C4030403C00E0
:100460004428102844004C9090907C004464544CE4
:100470004400000836410000000077000000004101
:10048000360800000201020402003C2623263C003C
:10049000000000000000000000000000000000005C
:1004A000C0E0F0F8F81800C0F0FCFEFFFFFFFFFF0F
:1004B000FFFF7E00000000000000000080C0E0E0C0
:1004C000E0E0E0E0E0E0C0800000000080C0E0E0AC
:1004D000E0E0E0E0E0E0C080000000E0E0C0C0E07C
:1004E000E0E0E00000E0E0C0C0E0E0E0E0E0C0808C
:1004F0000000000080C0E0E0E0E0E0E0E0E0C0807C
:100500000000000000000000000000000000E0F01B
:10051000F0F0E0ECEEF7F37020007C7C7C7E007E57
:100520007E7E7F7F7F000080C0E07E5B4F5BFEC0F1
:100530000000C000DCD7DEDEDED7DC00C00000003B
:1005400000000000000000000000000000000000AB
:10055000000000000000000000F8FCFEFFE000FFCB
:10056000FFFFFFFFFF80FFFFFFFFFFFFFFFFFF1FFA
:100570000701000000000000000000FFFFFF8100F5
:10058000000000000081C3C3C30000FFFFFF810023
:10059000000000000081FFFFFF0000FFFFFF0100DF
:1005A0000000000000FFFFFF010000000001FFFF4E
:1005B000FF0000FFFFFF9D1C1C1C1C1C1C9DDFDF9F
:1005C000DF000000000000000000000000000F1F1E
:1005D0003F7F7F7F7F7F3F1E0C001F1F1F3F003F1D
:1005E0003F3F7F7F7F00307B7F7830202030787FD7
:1005F0003B0003000F7F0F0F0F7F0F000300000071
:1006000000000000000000000000000000000000EA
:10061000000000000000000000030F1F3F3F3F3FAD
:100620001F1F3F3F7F7F7F3F3F1F3F7F7F7F7F7C3D
:100630007878381C0F000000000000000103070755
:10064000070707070707030100000000010307076A
:100650000707070707070301000000070707000057
:100660000000000000070707000000000000070767
:100670000700000001030707070707070707030133
:10068000000000000000000000000000000000006A
:10069000000000000000000000000000000000005A
:1006A000000000000000000000000000000000004A
:1006B000000000000000000000000000000000003A
:1006C000000000000000000000000000000000002A
:1006D000290014001A0008001500170000002B6103
:1006E00004001600070009000A000000E1001D00D8
:1006F0001B000600190005000000000000000000BB
:100700009168E65C2C0000002A00130012000C0027
:1007100018001C000000340033000F000E000D0014
:100720000B000000E5003800370036001000110013
:1007300000000000000000009064E75C280000005A
:1007400000000000000000000000000000000000A9
:100750000000000000000000000000000000000099
:100760000000000000000000000000000000000089
:100770000000000000000000000000000000000079
:100780000000000000000000000000000000000069
:100790000000000000000000000000000000000059
:1007A0000000000000000000000000000000000049
:1007B0000000000000000000000000000000000039
:1007C0000000000000000000000000000000000029
:1007D0000000000000000000000000000000000019
:1007E0000000000000000000000000000000000009
:1007F00000000000000000000000000000000000F9
:1008000000000000000000000000000000000000E8
:1008100000000000000000000000000000000000D8
:1008200029001E001F0020002100220000002B6173
:100830003A003B003C003D003E000000E100440067
:100840004500680069006A00000000000000000028
:100850009168E65C2C0000002A0027002600250095
:10086000240023000000000043004200410040003B
:100870003F00000000006F006E006D006C006B0018
:1008800000000000000000009064E75C2800000009
:1008900029001E021F0220022102220200002B61F9
:1008A000000000000000000000000000E100000067
:1008B0000000000000000000000000000000000038
:1008C0009168E65C2C0000002A002702260225021F
:1008D0002402230200003500310230022F022E00D4
:1008E0002D0000003502310030002F002E022D02B5
:1008F00000000000000000009064E75C2800000099
:1009000000000000000000000000000000000000E7
:1009100000000000000000000000000000000000D7
:1009200000000000000000000000000000000000C7
:1009300000000000000000000000000000000000B7
:100DD000005CEA5C00000000000000000000C25C53
:100DE000C55CC75CC95C000000000000C35CC65C59
:100DF000C85CCA5C000000000000000000000000A9
:100E00009168E65C2C00000000000000000000007B
:100E100000000000000000000000000000000000D2
:100E200000000000000000000000000000000000C2
:100E300000000000000000009064E75C2800000053
:100E400000047F3F1F643214643214783C1E1E1469
:100E50000A056801F000B40078005A0000000000A4
:100E6000000101010101010101010202020202026D
:100E70000202020303030303030303040404040440
:100E80000405050505050606060606070707070803
:100E90000808080909090A0A0A0A0B0B0B0C0C0CB2
:100EA0000D0D0D0E0E0F0F0F101011111112121348
:100EB000131414151516161717181819191A1A1BC2
:100EC0001C1C1D1D1E1F1F2020212222232425251E
:100ED00026272728292A2B2B2C2D2E2F2F30313255
:100EE00033343536363738393A3B3C3D3E3F404166
:100EF000424344464748494A4B4C4D4F5051525348
:100F0000555657585A5B5C5E5F60626364666769FA
:100F10006A6C6D6E707173747678797B7C7E80817B
:100F2000838486888A8B8D8F91929496989A9B9DC4
:100F30009FA1A3A5A7A9ABADAFB1B3B5B7B9BBBDD1
:100F4000BFC1C4C6C8CACCCFD1D3D6D8DADCDFE1A2
:100F5000E4E6E8EBEDF0F2F5F7FAFCFF040330000D
:100F600000000C03430072006B006200640000008C
:100F7000100366006F006F007300740061006E0064
:100F800000000403090409022200010100A0FA097B
:100F900004000001030101000921110100012240A8
:100FA000000705810308000A120110010000000873
:100FB000EDFE603001000102030105010906A101F7
:100FC000050719E029E7150025019508750181023B
:100FD0009501750881010508190129059505750117
:100FE00091029501750391010507190029FF15006C
:100FF00026FF00950675088100C011241FBECFEFA3
:10100000DAE0DEBFCDBF04B603FE27C08091110435
:1010100090911204A0911304B09114048730904B66
:10102000A740B04BD1F41092110410921204109208
:1010300013041092140414BE84B7877F84BF0FB6C4
:10104000F894A89580916000886180936000109268
:1010500060000FBEE0E0F8E3099512E0A0E0B1E027
:10106000EAE0FDE602C005900D92A032B107D9F783
:1010700024E0A0E2B2E001C01D92A131B207E1F785
:101080000E94322A0C9483360C94000083E390E093
:101090002091BC0027FD02C00197D1F7089510925E
:1010A000B9008CE08093B8000895CF93C82F84EAEC
:1010B0008093BC000E9446088091B900887F8830E8
:1010C00039F08091B900887F803111F081E012C041
:1010D000C093BB0084E88093BC000E9446088091C6
:1010E000B900887F883129F08091B900887F8034E9
:1010F00069F780E0CF91089584E98093BC0083E391
:1011000090E02091BC0024FD02C00197D1F7089522
:101110008093BB0084E88093BC000E9446089091B5
:10112000B900987F81E0983209F480E008951F9219
:101130000F920FB60F9211248F939F93EF93FF930B
:101140008091B900887F803869F038F48823C9F12C
:101150008036C9F51092200236C0883A09F1883BE2
:10116000F9F031C080912002811111C08091BB0043
:101170008093210280912102803120F0109221027F
:1011800080E001C081E091E0909320021DC0E091D9
:101190002102F0E08091BB00E95DFC4F808308C034
:1011A000E0912102F0E0E95DFC4F80818093BB007B
:1011B0008091210290E001968F70992780932102FF
:1011C00002C01092BC0081E09091BC008295880F13
:1011D000880F807C9568892B8093BC00FF91EF91EC
:1011E0009F918F910F900FBE0F901F9018958EE1D9
:1011F0004A9B02C08150E1F74A9BFECF08955A985E
:1012000080E28A95F1F75A9A0895FC012AE02A951E
:10121000F1F790E020E080E031E0261779F040E13E
:101220004A95F1F7880F4A9B02C08160932700C05E
:10123000000040E14A95F1F72F5FEFCF20E12A95BA
:10124000F1F729B100C0000030E13A95F1F722FB37
:10125000222720F992272081920F90830895EF9200
:10126000FF920F931F93CF93DF931F92CDB7DEB7FB
:1012700019828C017C01E60EF11C0E151F0559F038
:101280000E94F70868E0CE0101960E940509F80166
:1012900081938F01F2CF81E09981911180E00F90CD
:1012A000DF91CF911F910F91FF90EF900895909350
:1012B00024028093230260932202529A5A9A08953C
:1012C00090932402809323026093220252985A9AA8
:1012D000EA9AE9E6F0E080818F7C8083089561508E
:1012E00091E001C0990F6A95EAF720E031E0992377
:1012F00061F0492F482319F05A9A232701C05A98C0
:1013000040E24A95F1F79695F2CF222311F05A9ACE
:1013100001C05A9880E28A95F1F75A980895FF9291
:101320000F931F93CF93DF93EC018C01060F111DD8
:10133000C017D10741F0F9900E94FF0868E08F2D97
:101340000E946F09F5CFDF91CF911F910F91FF9010
:1013500008951F920F920FB60F9211240F931F93AF
:101360002F933F934F935F936F937F938F939F93AD
:10137000AF93BF93EF93FF93CF93DF931F92CDB7BC
:10138000DEB719820E94F70867E0CE0101960E943D
:101390000509382F369536953695932F9695957085
:1013A000232F2570920F292F23709695969587707D
:1013B000920F891348C08981811145C08091220212
:1013C000831708F440C080E18A95F1F75A9A529A3F
:1013D000A2E0AA95F1F700C0009123021091240227
:1013E000B8E03B9F000D111D11245A98F80165814A
:1013F000662321F0868197810E948F090E94FF0851
:10140000F0E1FA95F1F75A9852985A9A80E18A9544
:10141000F1F7D80112966C911297662369F0139632
:101420008D919C9114970E942F09D801ED91FC9108
:10143000811105C082E004C0D801ED91FC9188E0E3
:1014400080830E94F7080F90DF91CF91FF91EF9179
:10145000BF91AF919F918F917F916F915F914F91CC
:101460003F912F911F910F910F900FBE0F901F90E2
:1014700018950F931F93CF93DF932091220230E0B2
:10148000281739070CF471C09C0193E0220F331F19
:101490009A95E1F7C0912302D0912402C20FD31F85
:1014A000F894529A5A9845E04A95F1F70000982F1F
:1014B000969595708570890F982F9370869586956F
:1014C000890F8901082B0E94FF0884E08A95F1F7B3
:1014D00000C067E0802F0E946F0940E14A95F1F754
:1014E00052985A9A4A9902C000C0FCCF87E090E017
:1014F0004A9B0EC0019751F4529A5A9AE881F98199
:1015000081E08083789481E090E031C000C0F0CF2A
:101510006D81662381F08E819F810E942F09811148
:101520000AC0529A5A9AE881F98182E080837894BD
:1015300082E090E01CC00E94F70880E28A95F1F7F3
:101540005A98529A40E14A95F1F76A81662321F050
:101550008B819C810E948F090E94FF08E881F9819C
:101560001082789480E090E002C084E090E0DF9107
:10157000CF911F910F910895CF93C82F88E70E94B4
:10158000550881110AC080E00E948808811105C0B9
:101590008C2F0E948808C1E08111C0E00E947C0865
:1015A0008C2FCF910895CF93C62F0E94BC0A882319
:1015B00021F08C2FCF910C94BC0A80E0CF9108953C
:1015C000CF93C62F0E94BC0A882349F080E00E9476
:1015D000BC0A882321F08C2FCF910C94BC0A80E0A8
:1015E000CF9108958EEA0C94BC0A8FEA0C94BC0A41
:1015F0000F931F93CF93DF938C010C5A1F4FD80189
:10160000ED91FC91119760832D913C9111972F5F83
:101610003F4F2D933C93281B390B24353105B9F4EA
:10162000EC01BC016B5E7F4F4FE350E00E941A3328
:10163000CE01CF96F8019183808345E150E060E2CE
:1016400070E0DF91CF911F910F910C942C33DF91BB
:10165000CF911F910F9108951F93CF93DF93FC01BA
:10166000EA5AFF4F21E020836A3099F4EC01329767
:10167000808191818C1B9D0B65E170E00E94E632B8
:10168000182F153158F460E2CE010E94F80A1F5F4E
:10169000F8CFDF91CF911F910C94F80ADF91CF9191
:1016A0001F910895EF92FF920F931F93CF93DF93B3
:1016B0007C01EB01FB0101900020E9F78F01015053
:1016C0001109C017D10728F46991C7010E942C0B9A
:1016D000F8CFDF91CF911F910F91FF90EF90089578
:1016E000CF92DF92EF92FF920F931F93CF93DF93EE
:1016F000CDB7DEB77C010DB71EB7DB010D90002022
:10170000E9F7CD01861B970B01962DB73EB7281B35
:10171000390B0FB6F8943EBF0FBE2DBF2F5F3F4F62
:1017200069017F936F9327E731E03F932F939F9356
:101730008F93DF92CF920E943A33B601C7010E9485
:10174000520B8DB79EB708960FB6F8949EBF0FBE8A
:101750008DBF0FB6F8941EBF0FBE0DBFDF91CF91A6
:101760001F910F91FF90EF90DF90CF900895CF934E
:10177000DF93EC0144E550E060E270E00E942C331E
:10178000FE01EC5AFF4FD183C083CA5ADF4F81E07C
:101790008883DF91CF9108959F92AF92BF92CF92AD
:1017A000DF92EF92FF920F931F93CF93DF93EC01A1
:1017B0000E94A92890932602809325020E94F50A90
:1017C00063E082E20E94E00A882309F43CC06DE7EE
:1017D00081E20E94E00A8823B1F188E70E9455085F
:1017E000811131C080E40E94880881112CC06E01F3
:1017F00084E0982E00E010E0F601E00FF11FA080D9
:1018000086E0A89E50011124E12CF12CF501EE0D8B
:10181000FF1DE057FE4F84910E9488088FEFE81A61
:10182000F80A86E0E816F10489F70F5F1F4F0531CB
:10183000110511F79A9485E1C80ED11C9110DACFE9
:10184000CA5ADF4F1882DF91CF911F910F91FF90FD
:10185000EF90DF90CF90BF90AF909F900C947C085A
:1018600087E393E00C94CC0BCF93DF93C82F0E94B7
:101870004F088EEA0E94BC0A811102C080E09BC022
:1018800060E885ED0E94D30A8823C1F36FE188EAFE
:101890000E94D30A882391F360E083ED0E94D30A6B
:1018A000882361F380E40E94BC0A882339F364E151
:1018B0008DE80E94D30A882309F360E080E20E9449
:1018C000D30A8823D9F2CC2339F080EA0E94BC0ADB
:1018D0008823A1F280EC06C081EA0E94BC0A88231A
:1018E00069F288EC0E94BC0A882341F262E08AED2A
:1018F0000E94D30A882311F26FE881E80E94D30A7C
:10190000882309F4BBCF61EF89ED0E94D30A8823B5
:1019100009F4B4CF60E48BED0E94D30A882309F464
:10192000ADCF84EA0E94BC0A882309F4A7CF86EAD7
:101930000E94BC0A882309F4A1CF8EE20E94BC0A4F
:10194000882309F49BCF8FEA0E94BC0A882309F4FC
:1019500095CF60E081E80E94D30A882309F48ECFF6
:1019600087E393E00E94B70B63E082E20E94E00A03
:101970008823E1F06FE781E20E94E00A8823B1F05A
:1019800088E70E945508811111C080E40E948808F0
:1019900081110CC0D4E0C0E080E00E948808CF5FD5
:1019A000C038D1F7D150B9F710928D030E947C084E
:1019B0000E94300C81E0DF91CF9108950E94721057
:1019C00080918D03811104C080910001882321F052
:1019D0000E94300C10920001809125029091260205
:1019E0000E94B52881369A4E10F00C94F20A0895A0
:1019F00081E0809300010895CF93DF93A2E8B1E0E6
:101A000046E851E061E070E08D91E82FE295EF70DB
:101A1000F0E021A18F70EB0102C0CC0FDD1F8A9591
:101A2000E2F7CE019C2F9095922391A392A1892B4E
:101A300082A34A175B0741F7DF91CF9108950C9479
:101A4000311080911A038360886080931A030E948A
:101A5000FC0CABE7B1E041E050E08D91E82FE2955E
:101A6000EF70F0E021A18F70BA0102C0660F771FFE
:101A70008A95E2F7CB01962F9095922391A392A19C
:101A8000892B82A371E0A238B70739F7559A209ABB
:101A90005D9A289AEFE2F2E0A7E2B2E011921D927D
:101AA00082E0E733F807D1F70E94AE0E8093370249
:101AB0000C9411119F92AF92BF92CF92DF92EF924E
:101AC000FF920F931F93CF93DF93809102018111B7
:101AD00003C0C4E0D0E002C0C0E0D0E0AE01495D88
:101AE0005D4F7A0182E8C82E81E0D82E8A01AA24AF
:101AF000A394B12C25E0922EF6E8CF16F1E0DF0694
:101B000009F44AC0F60181916F01E82FE295EF7068
:101B1000F0E021A18F70A50102C0440F551F8A95E6
:101B2000E2F7CA01922F982B91A392A18095892365
:101B300082A350EA5A95F1F7EBE7F1E020E040E0AC
:101B400050E03191A32FA295AF70B0E090968C91A8
:101B500090E03F7002C0959587953A95E2F780FD39
:101B600007C0C501042E01C0880F0A94EAF702C01D
:101B700080E090E0282B4F5F5F4F4730510509F719
:101B8000F8018081821719F02083909201010E9450
:101B9000FC0C0F5F1F4FB0CF809101018823B1F083
:101BA000815080930101811103C0C15DDD4F07C0E9
:101BB0008FE99FE00197F1F700C0000007C0F7012F
:101BC00091917F0199938F5F8430C9F781E0DF9114
:101BD000CF911F910F91FF90EF90DF90CF90BF902A
:101BE000AF909F900895CF93DF9320910201211130
:101BF00003C0C0E0D0E002C0C4E0D0E00E94D80E34
:101C0000009721F00297A1F4289812C0289AC15D8C
:101C1000DD4F8091420290914302A0914402B09125
:101C2000450288839983AA83BB8380E090E002C049
:101C300081E090E0DF91CF9108950E945A0D80914C
:101C40000201811103C0E4E0F0E002C0E0E0F0E056
:101C5000E15DFD4F20E030E080E0D901AE5BBD4F9B
:101C60004C919191491381E09C932F5F3F4F243019
:101C7000310599F790913B02890F80933B020895BB
:101C8000CF93DF9380913702882309F440C00E94EC
:101C90005A0D80910201811103C0C4E0D0E002C05E
:101CA000C0E0D0E0C15DDD4F44E050E0BE018EE316
:101CB00092E00E940D33488159816A817B81409373
:101CC0003E0250933F0260934002709341020E9493
:101CD000F30D892BC1F05D98809138028F5F80935E
:101CE0003802863070F180910201811103C0E0E07A
:101CF000F0E002C0E4E0F0E0E15DFD4F108211820F
:101D0000128213821EC05D9A109238021AC00E947D
:101D10001D0E80910201811103C080E090E002C09D
:101D200084E090E0FC01E15DFD4F40913E02509166
:101D30003F0260914002709141024083518362836F
:101D400073830E94191181E0DF91CF910895E82FEC
:101D5000F0E0E15DFD4F808108950895E8EDF0E049
:101D60008081806180838AE18A95F1F700C080914B
:101D7000D900817008950E94AE0E809302010E94E6
:101D8000AE0E882319F00E94CC0E02C00E94D20E23
:101D9000789408950C94BB0E63E070E083E091E0CA
:101DA0000C94570963E070E083E091E00C946009C3
:101DB0000F931F93CF93DF938C0190911C0180911F
:101DC0001B01981761F082E090E00E94390AEC0153
:101DD000892B39F480911B0180931C0102C0C0E063
:101DE000D0E0012B49F48091390290913A02892B7D
:101DF00019F480E090E002C081E090E00E94390A8E
:101E0000892B49F480913B0280931B0110923A0286
:101E10001092390206C081E090E090933A028093DC
:101E20003902CE01DF91CF911F910F9108958091DA
:101E3000050390910603A0910703B0910803803138
:101E40009105A105B105E1F060F40097A105B10588
:101E5000A1F088309105A105B105E1F466EA71E0D1
:101E600011C0009721E0A207B10589F088319105E2
:101E700021E0A207B10559F00DC06AE871E002C087
:101E800069E971E08EE893E00E9433331CC063EB94
:101E900071E0F8CFBF93AF939F938F9381EC91E064
:101EA0009F938F931F9288E18F938EE893E09F9387
:101EB0008F930E943A338DB79EB70A960FB6F89467
:101EC0009EBF0FBE8DBF8EE893E008958DE191E037
:101ED0000895CF938C33910528F4FC01ED51FE4F0A
:101EE000C08101C0C0E21F92CF939F938F93FB01EB
:101EF00080811F928F9381811F928F9382ED91E059
:101F00009F938F931F9288E18F938DE592E09F932B
:101F10008F930E943A338DB79EB70E960FB6F89402
:101F20009EBF0FBE8DBF809146029091470244979D
:101F300079F08091460290914702FC01E85BFD4FE9
:101F4000C08301969093470280934602CF910895F3
:101F50001092470210924602E8E4F2E080E292E03A
:101F6000EC35F90731F38193FACF8DE592E00895CE
:101F700088E492E008950F931F93CF93DF93EC01D1
:101F80008B010E94F80C882329F0B801CE010E9431
:101F9000961002C080E090E08170DF91CF911F9198
:101FA0000F91089508950C942210CF93DF93EC01C4
:101FB0000E948027BE0180E090E0DF91CF910C94D9
:101FC0000B25CF92DF92EF92FF920F931F9301E0C8
:101FD00010E020E030E06801790104C0CC0CDD1C89
:101FE000EE1CFF1C6A95D2F704C0000F111F221FC0
:101FF000331F8A95D2F70C291D292E293F2980915C
:10200000050390910603A0910703B0910803802374
:102010009123A223B323081719072A073B0749F482
:10202000842F1F910F91FF90EF90DF90CF900C9431
:102030006B25842F1F910F91FF90EF90DF90CF9031
:102040000C948C258091A80386958F7390E09093D3
:10205000A7038093A6030E94AE0E91E089270C94FB
:10206000340C0C94DE0CCF93DF93EC01809137029B
:102070008823A1F00E94170FBC01CE010E94700BB3
:102080000E94B50FBC01CE010E94700B0E94B80FD8
:10209000BC01CE01DF91CF910C94700B0E94660FB2
:1020A000BC01CE01DF91CF910C94520B0F931F9383
:1020B000CF93DF93EC018B0144E550E00E940D3398
:1020C000892B59F084E5F801DE0101900D928A9583
:1020D000E1F7CA5ADF4F81E08883DF91CF911F91EA
:1020E0000F910895CF93DF93CDB7DEB7C755D109D0
:1020F0000FB6F894DEBF0FBECDBFCE0101960E9491
:10210000B70BCE0101960E943310BE016F5F7F4F67
:1021100087E393E00E945610C95ADF4F0FB6F89438
:10212000DEBF0FBECDBFDF91CF9108950F931F93F8
:10213000CF93DF938C01EB018A81882319F0C801CA
:102140000E94690F063E8CE51807E1F040F4033C5D
:102150008CE51807C9F1053E1C4559F059C0083EE9
:102160008CE5180739F188F00A3E1C4509F43FC098
:102170004FC0CA81CC2309F44CC081E090E00E949A
:10218000D50F0EC0CA8183E002C0CA8184E0CC238F
:1021900049F00E946B2540E164E083E00E94E10F7A
:1021A000C0E037C00E948C2540E164E083E00E94DB
:1021B000E10F2FC0CA8180E1CC2319F00E946B256A
:1021C000EFCF0E948C2525C0CA81CC2311F18091CC
:1021D000A6030E940E190E94FD188091A8038695FF
:1021E0008F7390E09093A7038093A603D9CFCA8101
:1021F000CC2371F00E94A9160E9411198091A803A6
:1022000086958F7390E09093A7038093A60301C0F7
:10221000C1E08C2FDF91CF911F910F91089581E044
:1022200008950E946D27811102C00E94E0270C943E
:10223000D30F0C941F0D0C94D20F08950E942121EE
:102240000E941D112FEF84E39CE0215080409040BC
:10225000E1F700C0000087E797E7909301088093BB
:1022600000080C940529FF920F931F93CF93DF93DF
:102270008C01FC01C081D1818091A902811113C020
:102280008281882349F0CE010E946026F82E682FB3
:10229000CE010E94092604C0CE010E943426F82EE9
:1022A000BE018F2D04C0CE010E946026BE010E9497
:1022B000B513EC01B8010E94BB0F882309F44AC290
:1022C000CC3CFCE5DF0709F4DFC0E8F5C43C9CE545
:1022D000D90709F4A3C0F8F4C531FCE5DF0778F4A9
:1022E000C2308CE5D80708F04EC1C1159CE5D9076E
:1022F00009F465C0C130DC4509F469C01EC2C23CA6
:10230000FCE5DF0709F476C008F07CC0C631DC4587
:1023100009F4ECC112C2F8018281C83CFCE5DF0778
:1023200009F49AC040F4C63CECE5DE0709F488C025
:1023300008F480C08BC0CA3C9CE5D90709F498C05A
:1023400008F490C09BC0C43DFCE5DF0709F4F6C06B
:10235000C0F4F8018281C03DFCE5DF0709F4BDC08F
:1023600040F4CE3CECE5DE0709F49BC008F494C0D1
:10237000A6C0C23D9CE5D90709F4CDC008F4BDC094
:10238000D8C0C83DFCE5DF0709F495C150F4F80159
:102390008281C63DFCE5DF0709F447C108F4DEC0D1
:1023A00065C1CC3DECE5DE0709F4E4C0CD3DFCE5BC
:1023B000DF07C1F0CB3DDC4509F0BFC1D4C0F80157
:1023C0008281882309F4C6C10E941E11C3C1F8018D
:1023D0008281882309F4BEC180911A0381608093B1
:1023E0001A03B8C1F8018281882309F4B3C10E949D
:1023F000E027B0C1F8018281882309F4ABC10E94B3
:102400006619A8C1F8018281882309F4A3C10E943A
:102410003127827261F00E940B199CC1F801828100
:10242000882309F497C10E9431278272A1F30E9488
:10243000FD1890C1882309F48DC10E9401188AC13A
:10244000882309F487C10E94241884C1882309F4D1
:1024500081C10E9444187EC1882309F47BC10E9477
:10246000641878C1882309F475C10E94841872C168
:10247000882309F46FC10E94A4186CC1882309F451
:1024800069C10E94C31666C1F8018281882309F4DC
:1024900061C10E94D8165EC1882309F45BC181E046
:1024A00029C0882309F456C10E94BA16823028F048
:1024B0000E94BA16853008F4BACF82E01BC0882388
:1024C00009F448C10E94BA16863028F00E94BA1654
:1024D000883008F4ACCF86E00DC0882309F43AC1F7
:1024E0000E94BA16893028F00E94BA168E3008F47D
:1024F0009ECF89E00E940E192DC1882309F42AC1BC
:102500000E94BA168F3028F00E94BA16843108F45F
:102510008ECF8FE0EFCF882309F41CC10E94BA163A
:10252000853128F00E94BA16873108F480CF85E102
:10253000E1CF882309F40EC188E1DCCFF801828164
:10254000882309F407C10E94BA16893128F00E9435
:10255000BA16823208F46BCF89E1CCCF882309F414
:10256000F9C083E2C7CFF8018281882309F4F2C061
:1025700080E006C0F8018281882309F4EBC082E084
:102580000E94BE2AE7C0F8018281882309F4DAC0DC
:102590000E946D27811102C00E94E0270E948527BA
:1025A00090E09093030480930204FE01E350FC4505
:1025B000E231F10530F4EA5AFF4F809102040C94A5
:1025C000FA3280910204816027C0826025C0846055
:1025D00023C0806121C080621FC080641DC08068EC
:1025E0001BC08460886018C08E7F16C08D7F14C0A9
:1025F0008B7F12C08F7E10C08F7D0EC08F7B0CC072
:102600008F770AC08B7F877F07C087FB222720F93F
:1026100091E0922790FB87F9809302048091020455
:102620000E9489270E94212195C0882351F0109291
:102630007A020E94A928909377028093760282E022
:1026400020C080917A0281110FC080917602909112
:1026500077020E94B5288436910530F486E20E9404
:10266000E81D86E20E94AB1E82E022C0882361F052
:1026700010927B020E94A92890937902809378029D
:1026800080E20E94D71E66C080917B0281110FC03C
:1026900080917802909179020E94B5288436910544
:1026A00030F487E20E94E81D87E20E94AB1E80E2C0
:1026B0000E94DE1E4FC0F80182818111D9CF809126
:1026C0007B028111F4CF80917802909179020E946F
:1026D000B5288436910558F780E20E94DE1E88E214
:1026E0000E94E81D88E20E94AB1E34C00E94312780
:1026F000982FF801828120916A0130916B01882323
:1027000079F09A7A81E009F480E080937502911162
:1027100002C069E201C065E3C9010E9415280AC030
:1027200080917502811102C069E201C065E3C901AF
:102730000E9417280E94FE260DC081E080937A0235
:1027400080937B02C801DF91CF911F910F91FF9081
:102750000C940F1180E0DF91CF911F910F91FF90AA
:10276000089580E090E00895089528E3829FC001D5
:102770001124FC0127E0729FE00DF11D1124E60FEA
:10278000F11DEE0FFF1FE053F94F859194910895CD
:10279000880F991FFC01E05CF14F85919491089599
:1027A000CF93DF930E94B5130E948215EC0181152F
:1027B000904508F041C0C11580E4D80708F024C155
:1027C000C83ED10510F5C03ED10508F097C1C83A02
:1027D000D10578F4C53AD10508F09EC0C130D105C5
:1027E00009F48CC108F43DC1C430D10508F086C19C
:1027F00038C1CF3BD10508F49AC0C03CD10508F4DC
:1028000030C1CE01805C9109F1C0C11590E2D907B9
:1028100058F4C11521E0D20708F070C1C03FD105BE
:1028200008F41FC1D0656AC1C11580E3D80708F05C
:10283000E1C0CE019F70DAC0C11595E5D90708F057
:1028400044C0C11524E5D20708F0F5C0C11582E5E2
:10285000D80710F5C11591E5D90708F0D8C0CE0109
:1028600074E0969587957A95E1F7282F23703C2F91
:10287000337081E090E002C0880F991F3A95E2F72B
:102880009C68922BCF70C695C69520E2C29FE0014E
:102890001124C82BD92B32C19E01237033278C2FD2
:1028A00086958695C115D34508F0B6C0C1E0D0E045
:1028B00002C0CC0FDD1F2A95E2F720E2829FC00103
:1028C0001124C82BD92BDC6819C1C11529E5D20701
:1028D00080F4C11588E5D80708F0B2C0C11596E5A7
:1028E000D90708F0BEC0CF71DD27DC2FCC27D0621E
:1028F00005C1CE01C1152AE5D20708F4A6C090563D
:102900008115904208F0ADC08D2F8F710E94FE1589
:10291000DD27D0628F71A3C0C53AD10509F4A4C0E8
:10292000C63AD10509F0A3C0C2E8D0E4E7C0C83A6E
:10293000D10509F49FC0C93AD10509F49EC0CA3A2D
:10294000D10509F49DC0CB3AD10509F49CC0CC3A1D
:10295000D10509F49BC0CB3BD10509F49AC0CC3B0F
:10296000D10509F499C0CD3AD10509F498C0C03B0E
:10297000D10509F497C0CE3AD10509F496C0CF3AF3
:10298000D10509F495C0C13BD10509F494C0C23BFF
:10299000D10509F493C0C33BD10509F492C0C43BEF
:1029A000D10509F491C0C53BD10509F490C0C63BDF
:1029B000D10509F48FC0C73BD10509F48EC0C83BCF
:1029C000D10509F48DC0C93BD10509F48CC0CD3BBC
:1029D000D10509F48BC0CE3BD10509F48AC0CA3BAE
:1029E000D10509F489C0C0E0D4E488C00E94C813AE
:1029F000EC0184C0CE019927D3FF03C0EC01D86C51
:102A00007DC0EC01D06C7AC0DF70D06A77C0DC2F5B
:102A1000CC27C16FD06A72C0C1E0D0E002C0CC0F39
:102A2000DD1F2A95E2F720E2829FC0011124C82B06
:102A3000D92BDA6863C0DC2FCC27C46FD06A5EC0A4
:102A4000DC2FCC27C06FD06A59C024E096958795BB
:102A50002A95E1F78F70CF70C06ED0E0D06AD82B86
:102A60004DC0C0E0D0E04AC0C1E8D0E447C0C3E8F0
:102A7000D0E444C0C2EED4E441C0C9EED4E43EC0C8
:102A8000CAEED4E43BC0C5EBD4E438C0C6EBD4E412
:102A900035C0C3EBD4E432C0C4EBD4E42FC0C7EBE1
:102AA000D4E42CC0CCECD4E429C0CDECD4E426C0D2
:102AB000C3E8D5E423C0CAE8D5E420C0C2E9D5E420
:102AC0001DC0C4E9D5E41AC0C1E2D6E417C0C3E210
:102AD000D6E414C0C4E2D6E411C0C5E2D6E40EC008
:102AE000C6E2D6E40BC0C7E2D6E408C0CFE6D4E421
:102AF00005C0C0E7D4E402C0CAE2D6E4CE01DF914B
:102B0000CF9108958238910549F1B0F48133910550
:102B100009F459C048F48932910509F44FC08A324A
:102B2000910509F455C008958533910509F441C014
:102B30008933910599F00895833E910531F138F478
:102B4000803E910591F0823E9105A9F00895863E60
:102B5000910501F1873E910539F108952091020414
:102B600020FD3BC021FD39C008958091020480FF03
:102B700034C089E341C08091020482FF30C080915B
:102B8000020484FD2EC083EE37C08091020482FDD2
:102B900026C0F5CF8091020483FF25C080910204F6
:102BA00084FD1FC087EE28C08091020483FD1BC0F6
:102BB000F5CF8091020485FD18C019C080910204F0
:102BC00085FD15C012C08091020486FD12C013C09D
:102BD0008091020486FD0FC00CC080EE0DC082EE15
:102BE0000BC080E009C086EE07C089E205C085E31E
:102BF00003C08AE201C081E390E00895909102044D
:102C000092FF0DC0282F2871283019F4877F846027
:102C100006C0282F2471243011F48B7F886093FF25
:102C20000DC0282F2871283119F4877E846106C0D1
:102C3000282F2471243111F48B7E886194FD877EC6
:102C40000895CF92DF92EF92FF920F931F93CF934D
:102C5000DF93E901493708F048E7662309F44EC0DD
:102C6000242F30E0EFEFF0E0E61BF109B901E69F19
:102C70008001E79F100DF69F100D1124012F110FF9
:102C8000110B202F7B01E01AF10A3CE3C32ED12C5B
:102C9000B6010E94D232FB01BC01E69EC001E79E54
:102CA000900DF69E900D1124B6010E94D232E230B2
:102CB000F105B1F040F4309779F0319711F5802F9C
:102CC000242F461B21C0E430F105A1F068F03597B0
:102CD000C1F4842F861B18C0802F262F200F14C00C
:102CE000862F800FE42F03C0E42FE61B842F402F94
:102CF0002E2F0AC0842F462F400F06C0842F242F6A
:102D000003C080E020E040E0E42FF0E0E45AF14F1F
:102D10004491E22FF0E0E45AF14F9491E82FF0E073
:102D2000E45AF14FE49149839883EA83DF91CF918C
:102D30001F910F91FF90EF90DF90CF90089588E062
:102D400090E00C940C36AB01BC0188E090E00C9450
:102D50002A36E8EAF3E083E080831092A9038FEF3C
:102D6000828388E783831482608171818281938169
:102D70000C94A3168091A80380FF03C086958F73DF
:102D8000089580E008958091AC0390E0019684302E
:102D9000910514F083E090E08093AC036091A80368
:102DA0007091A9038091AA039091AB030C94A31690
:102DB0008091AC0390E0019797FF02C080E090E023
:102DC0008430910514F083E090E08093AC0360912F
:102DD000A8037091A9038091AA039091AB030C946E
:102DE000A3168091A80380FF06C06BE170E08DEA16
:102DF00093E00C94AD1CEDEAF3E011821082128294
:102E0000339683E0EE3FF807C1F7EFCF9091A80328
:102E100090FF0CC0EDEAF3E0818360834283339638
:102E200093E0EE3FF907C1F70C94F1160895CF93A4
:102E3000DF9300D01F92CDB7DEB72091A80320FF0B
:102E40000AC09E012F5F3F4F0E9421164B8169816E
:102E50008A810E9406170F900F900F90DF91CF91FB
:102E600008955F926F927F928F929F92AF92BF92DE
:102E7000CF92DF92EF92FF920F931F93CF93DF9346
:102E800000D01F92CDB7DEB78C01E62EF42E522E65
:102E90008091A80380FF89C0982F9E77923061F4BB
:102EA0009E012F5F3F4FC8010E9421164B8169810F
:102EB0008A810E94061759C0E82FE695EF739EE3BA
:102EC0009E0F9F73943018F4F090AB034EC09AE3BA
:102ED0009E0F9F73993068F4881F8827881F9091F0
:102EE000A903292F220F022F082B97FB112710F976
:102EF0003CC087E28E0F8F738A30B8F5F0E0799787
:102F0000E0FD02C021E001C02FEFEE7FEE5AF14F4D
:102F1000859194916BE170E00E94D23226034001CA
:102F2000279F900C1124580188E9A81A8EEFB80A3F
:102F30008DEAC82E83E0D82E98E6692E7724739404
:102F4000C501B3010E94D23296014F2D6E2D0E9411
:102F50002116A80CB91C83E0C80ED11C8EEFC81630
:102F600083E0D80669F70E94F1168091A80300FB60
:102F700087F98093A803902F96958091A903807874
:102F8000892B10FB87F98093A903E092AA03F092A2
:102F9000AB03552051F06091A8037091A903809173
:102FA000AA039091AB030E94A3160F900F900F906D
:102FB000DF91CF911F910F91FF90EF90DF90CF9015
:102FC000BF90AF909F908F907F906F905F9008958B
:102FD000282FE8EAF3E03081331F3327331F409175
:102FE000A903542F550F852F832B47FB992790F961
:102FF0000A9668E671E00E94E632438162810C9491
:10300000311781E00C94E817282F3091A803331F63
:103010003327331F4091A903542F550F852F832B3E
:1030200047FB992790F98A3091051CF4825A9E4FEC
:1030300005C00A9768E671E00E94E6324091AB0352
:103040006091AA030C94311781E00C9404186091EC
:10305000AA03262F30E02F3E310514F46F5E01C025
:103060006FEF3091A803331F3327331F9091A903CB
:10307000592F550F97FB992790F9282F4091AB03B3
:10308000852F832B0C94311781E00C9427186091C5
:10309000AA03262F30E02131310514F0615101C01F
:1030A00060E03091A803331F3327331F9091A903A9
:1030B000592F550F97FB992790F9282F4091AB0373
:1030C000852F832B0C94311781E00C944718409185
:1030D000AB03242F30E02836310514F44F5E01C0D5
:1030E00048E73091A803331F3327331F9091A9037A
:1030F000592F550F97FB992790F9282F6091AA0314
:10310000852F832B0C94311781E00C946718409124
:10311000AB03242F30E02131310514F0415101C0BF
:1031200040E03091A803331F3327331F9091A90348
:10313000592F550F97FB992790F9282F6091AA03D3
:10314000852F832B0C94311781E00C94871820E095
:103150000C943117CF939091A80390FF40C09178C1
:10316000811102C0926007C0853210F0986403C0DC
:103170008F73880F982B9093A803662351F060916A
:10318000A8037091A9038091AA039091AB030E94B8
:10319000A316C091A8036C2F66956F7370E04BE087
:1031A00050E08FE591E00E940033892B19F01092D6
:1031B000990203C081E080939902CC1FCC27CC1FD9
:1031C0009091A903892F880F97FB992790F9409137
:1031D000AB036091AA038C2BCF910C94A718CF91CD
:1031E0000895682F9091A80396959F7381E0890FA9
:1031F000853208F081E00C94AA1881E00C94F11853
:10320000682F9091A80396959F738FEF890F09F40B
:1032100084E20C94AA1881E00C94001961E00C94EB
:10322000AA18E8EAF3E080818160808386958F7335
:103230000C940E1960E00C94AA1880911A03816016
:1032400080931A030E946D27811104C00E94E02719
:103250000E94A9160E949F166093A8037093A90369
:103260008093AA039093AB036E7761F40E94A91632
:103270000E949F166093A8037093A9038093AA03EA
:103280009093AB0381E0809399028091A80380FF23
:1032900004C086958F730C941A190895E8EAF3E038
:1032A00080818E7F808360817181828193810E9481
:1032B000A316109299022FEF80E792E021508040F0
:1032C0009040E1F700C000000C94F1168091A80333
:1032D00080FD0C944E190C941119CF93C82F809136
:1032E0009702909198020E94B528EC2FF0E0E25BE3
:1032F000F14FE491F0E08E179F0708F443C00E945D
:10330000A92890939802809397026091960270E0AA
:1033100080E090E00E94D33020E030E04FE753E4BB
:103320000E94F62F2BED3FE049E450E40E94FC316F
:103330000E9469320E9470302BE43AE34EE25FE370
:103340000E94892F20EF3BEF48ED52E40E94FC31B0
:103350000E94A230462F8091A803881F8827881FCB
:103360009091A903292F220F97FB992790F960913B
:10337000AA03822B0E9417178091960290E0019673
:1033800080939602CF910895CF93C82F8091940295
:10339000909195020E94B528EC2FF0E0E55BF14F8B
:1033A000E491F0E08E179F07E8F00E94A92890931F
:1033B0009502809394024091AB036091AA0380919F
:1033C0009202909193020E9417178091920290911D
:1033D0009302019668E671E00E94D23290939302C4
:1033E00080939202CF910895CF92DF92FF920F9334
:1033F0001F93CF93DF93F82E8091900290919102CA
:103400000E94B528EF2DE695F0E0E85BF14FE491DE
:10341000F0E08E179F07C0F10E94A92890939102B7
:10342000809390020DEA13E0C0E0D0E088E6C82E59
:10343000DD24D39480918E0290918F028C0F9D1F7A
:10344000B6010E94D23298014091AB036091AA0369
:103450000E9421162D960D5F1F4FCF3581E0D807B2
:1034600049F70E94F11680918E0290918F02F0FE32
:1034700006C0019668E671E00E94D23201C0019751
:1034800090938F0280938E02DF91CF911F910F91C5
:10349000FF90DF90CF900895CF92DF92EF92FF924E
:1034A0000F931F93CF93DF93C82F80FF02C01FEFAE
:1034B00001C011E080918C0290918D020E94B5288C
:1034C000C695EC2FF0E0EB5BF14FE491F0E08E1746
:1034D0009F0708F45BC00E94A92890938D028093F7
:1034E0008C022DEAE22E23E0F22EC0E0D0E0F701BC
:1034F00011821082128294E0C92ED12C00E08091BA
:103500008B02800F87FD855E082E000C990BC81773
:10351000D907E9F48091AB038C9DA0018D9D500DDE
:10352000112455954795559547958091A803881F77
:103530008827881F9091A903592F550F97FB99272A
:1035400090F997016091AA03852B0E942116010F23
:10355000F1E0CF1AD10899F6219683E0E80EF11C2C
:10356000CB31D10521F60E94F11680918B021130EA
:1035700031F4811102C08AE107C0815005C090E09A
:103580000196BE010E94E63280938B02DF91CF91BB
:103590001F910F91FF90EF90DF90CF9008950F93C0
:1035A0001F93CF93DF93C82F8091890290918A0255
:1035B0000E94B528EC2FF0E0EE5BF14FE491F0E0D3
:1035C0008E179F0708F456C00E94A92890938A027C
:1035D00080938902CDEAD3E0FE011182108212822B
:1035E000339683E0EE3FF807C1F700E010E08091EA
:1035F0008802082E000C990B08171907ECF080912F
:103600005E01082E000C990B80179107ACF0809199
:10361000A803881F8827881F9091A903592F550F49
:1036200097FB992790F99E014091AB036091AA0303
:10363000852B0E94211603C0198218821A820F5FFF
:103640001F4F23960B31110591F60E94F1168091C0
:103650005D0190918802980F9093880220915E01FD
:10366000280F20935E01121614F49A311CF08195F4
:1036700080935D01DF91CF911F910F910895EF929B
:10368000FF920F931F93CF93DF93809186029091C7
:1036900087020E94B528883E9340D0F10E94A92855
:1036A0009093870280938602C0918402D091850214
:1036B0002196C170DD27D0938502C09384028DEAE4
:1036C000E82E83E0F82E10E008E7812F8695FE01B2
:1036D000E80FF11DCF018170992797014091AB034D
:1036E0006091AA03FC010E9FC0010F9F900D112451
:1036F0000E9421161F5FF3E0EF0EF11C1B3129F72A
:10370000DF91CF911F910F91FF90EF900C94F116E4
:10371000DF91CF911F910F91FF90EF900895CF937C
:10372000DF9300D01F92CDB7DEB7809182029091D7
:1037300083020E94B528E0E4FEE0259134918217CF
:103740009307C0F18091810281110CC09E012F5F0F
:103750003F4F48E76FEF80E090E00E9421168A819A
:10376000809381020E94A928909383028093820211
:1037700080918002813051F028F0823061F44091D4
:1037800081020AC08091810240E007C060918102FD
:1037900040E080E003C040E080E060E00E94061767
:1037A0008091800290E0019663E070E00E94E63232
:1037B000809380020F900F900F90DF91CF9108952A
:1037C0000F931F93CF93DF9380917E0290917F029E
:1037D0000E94B528843F914008F448C00E94A9285F
:1037E00090937F0280937E02CDEAD3E000E010E068
:1037F00020917C0230917D028091A8039091A903D1
:103800000D3011051CF4232B79F002C0232B61F439
:10381000881F8827881F592F550F97FB992790F9E4
:103820009E014091AB030AC0881F8827881F592F2B
:10383000550F97FB992790F99E0140E06091AA03EC
:10384000852B0E9421160F5F1F4F23960B31110508
:1038500079F60E94F11680917C0290917D0201968A
:103860008170992790937D0280937C02DF91CF91A4
:103870001F910F910895809199028823D9F1909119
:10388000A803892F86958F732EE3280F2F7324307A
:1038900018F482500C946D192AE3280F2F732330EB
:1038A00018F486500C94C41927E3280F2F73263080
:1038B00018F489500C94F41921E3280F2F73263043
:1038C00018F48F500C944C1A2BE2280F2F732330CE
:1038D00018F485510C94CF1A892F8E77803311F408
:1038E0000C943F1B863411F40C948F1B883411F414
:1038F0000C94E01B08952BB1342F309523233BB15A
:10390000432B3FB7F894FC01680F791FE617F707C0
:1039100089F0819198E04BB9000000C087FF2BB976
:10392000880F000000C000C000C02BB900C09A95ED
:1039300091F7ECCF3FBF08952AB1242B2AB99B0100
:10394000220F331F620F731F0E947B1C87EC90E0D5
:103950000197F1F700C00000089548E00C949C1C0A
:1039600090939F0280939E020895E0919E02F091B1
:103970009F02309721F00190F081E02D099480E0C2
:103980000895E0919E02F0919F02309721F002800D
:10399000F381E02D0994089520919C0230919D02BD
:1039A0002817390771F090939D0280939C02E09153
:1039B0009E02F0919F02309721F00680F781E02D62
:1039C0000994089520919A0230919B022817390793
:1039D00071F090939B0280939A02E0919E02F09185
:1039E0009F02309721F00084F185E02D099408951D
:1039F00085B7806885BF85B7806885BF08950E94B8
:103A0000F81C0C94CA0E81E008950E94A0280E9420
:103A1000210D0E9416290C941D19BF92CF92DF929E
:103A2000EF92FF920F931F93CF93DF93CDB7DEB743
:103A30002A970FB6F894DEBF0FBECDBF0E94400E8E
:103A40000E94031D811111C08FEF89838A831B821D
:103A50000E94A9288160782F9D838C8349815A8197
:103A60006B818D810E94B41D54C081EAC82E82E012
:103A7000D82E00E010E0B02E802F0E94A70EE82E76
:103A8000F60121916F01F82EF22631F40F5F1F4FDE
:103A90000830110581F7D8CF80911A0381FD0E946B
:103AA000AD0E80E090E02F2D30E0482FB901082EB8
:103AB00002C0759567950A94E2F760FF25C08E8372
:103AC000BF8281E090E06C0102C0CC0CDD1C4A9505
:103AD000E2F72E2D30E02C213D21232B09F480E04C
:103AE00088870E94A9288160782F9A8789874E81CC
:103AF0005F8168858A850E94B41DF801EF55FD4FEE
:103B000080818C25808305C001968730910569F6F8
:103B1000BDCF0E94B51C9091A0028917A9F00E9408
:103B2000B51C8093A0022A960FB6F894DEBF0FBE94
:103B3000CDBFDF91CF911F910F91FF90EF90DF905C
:103B4000CF90BF900C941B112A960FB6F894DEBF4D
:103B50000FBECDBFDF91CF911F910F91FF90EF90DE
:103B6000DF90CF90BF900895CF93DF93CDB7DEB7AE
:103B70002B970FB6F894DEBF0FBECDBF4F8358878B
:103B800069877A878B87DE01119686E0FD011192A5
:103B90008A95E9F785E0FE01379601900D928A95A6
:103BA000E1F749815A816B817C818D819E810E94E0
:103BB000CE232B960FB6F894DEBF0FBECDBFDF919C
:103BC000CF910895FC01808191810E949F260895E4
:103BD000882309F4BFC0682F8CEF860F813A38F430
:103BE00080916A0190916B010E9415280CC080E2BF
:103BF000860F883050F4677081E001C0880F6A95A5
:103C0000EAF70E9434270C94FE268BE5860F83305A
:103C100070F4653A29F0663A31F083E890E005C027
:103C200081E890E002C082E890E00C94CC1C88E52A
:103C3000860F873108F08EC0683A09F445C0693AAA
:103C400009F445C06A3A09F445C06B3A09F445C025
:103C50006C3A09F445C06B3B09F445C06C3B09F470
:103C600045C06D3A09F445C0603B09F445C06E3A61
:103C700009F445C06F3A09F445C0613B09F445C0F9
:103C8000623B09F445C0633B09F445C0643B09F459
:103C900045C0653B09F445C0663B09F445C0673B38
:103CA00009F445C0683B09F445C0693B09F445C0C7
:103CB0006D3B09F445C06E3B09F445C06A3B09F40D
:103CC00045C080E090E044C082EE90E041C089EEC3
:103CD00090E03EC08AEE90E03BC085EB90E038C0BB
:103CE00086EB90E035C083EB90E032C084EB90E04F
:103CF0002FC087EB90E02CC08CEC90E029C08DECBD
:103D000090E026C083E891E023C08AE891E020C0DB
:103D100082E991E01DC084E991E01AC081E292E05D
:103D200017C083E292E014C084E292E011C085E201
:103D300092E00EC086E292E00BC087E292E008C0FB
:103D40008FE690E005C080E790E002C08AE292E052
:103D50000C94E21C0895882349F1682F8CEF860F9C
:103D6000813A38F480916A0190916B010E94172882
:103D70000CC080E2860F883050F4677081E001C08B
:103D8000880F6A95EAF70E943A270C94FE268BE585
:103D9000860F833020F480E090E00C94CC1C685AAD
:103DA000673120F480E090E00C94E21C08958823B1
:103DB00021F00E9434270C94FE260895882321F0D8
:103DC0000E943A270C94FE2608958F929F92AF92FC
:103DD000BF92DF92EF92FF920F931F93CF93DF93E7
:103DE0007C01D62FC72FFC01158112951F7002810F
:103DF00001110E9451270E94F726882379F00023A1
:103E000069F080E28D0F883048F082E00E94E02661
:103E10000E94F72691E0D82ED92601C0D12CBC2EC5
:103E2000B2948FE0B8228B2D90E0FC01E859FF4F4F
:103E30000C94FA328C2F807FCF70882311F0C295BA
:103E4000C07F002399F0CC2309F463C180E28D0F79
:103E5000883010F0D11104C08C2F0E94342703C089
:103E60008C2F0E9444270E94FE2653C18D2F0E9452
:103E7000AB1ECC2309F472C180E28D0F883010F0A4
:103E8000D11104C08C2F0E943A2703C08C2F0E94AE
:103E90004A270E94FE2662C18C2F807FCF7080321D
:103EA00011F0C295C07FDD2319F0D130C9F022C0D6
:103EB000002371F0112341F0113031F40E946A2780
:103EC0008C2B0E9464274AC10E946A278C2B1DC03C
:103ED000112319F0113009F441C10E9467271AC05B
:103EE000002321F0163008F039C10EC0153008F05B
:103EF00035C110C0002361F0112331F0F701858135
:103F000080FF07C18F7085838C2F0E94D71E26C12A
:103F1000111110C18C2FBCC08C2F837009F04CC0C4
:103F2000011125C12D2F229526952770220F220FD2
:103F30006D2F6F70862F90E0A0E0B0E04C015D0126
:103F4000022E04C0880C991CAA1CBB1C0A94D2F730
:103F5000D4FF12C08FE090E0A0E0B0E004C0880F72
:103F6000991FAA1FBB1F2A95D2F7BC01CD016095EE
:103F700070958095909503C060E070E0CB01C69588
:103F8000C695C370C23051F080F4682979298A2916
:103F90009B29C13071F00E941F25E9C06829792949
:103FA0008A299B290E943125E2C00E941F25C50154
:103FB000B4010E940D25DBC0002319F08C2F817005
:103FC00001C08695882309F4D2C02D2F229526950D
:103FD0002770220F220F6D2F6F70862F90E0A0E0C8
:103FE000B0E04C015D01022E04C0880C991CAA1C93
:103FF000BB1C0A94D2F7D4FF12C08FE090E0A0E07F
:10400000B0E004C0880F991FAA1FBB1F2A95D2F7E2
:10401000BC01CD01609570958095909503C060E0DE
:1040200070E0CB01C695C695C370C23051F080F4E4
:10403000682979298A299B29C13071F00E94E425D9
:1040400096C0682979298A299B290E94F6258FC064
:104050000E94E425C501B4010E94D22588C08D2F9D
:1040600090E0FC01E05EF109E531F10508F04DC09A
:10407000E858FF4F0C94FA32DF708C2F8F710023B9
:1040800021F00E946B258D2F40CF0E948C258D2F13
:104090000E94DE1E63C0002341F0153008F05EC0B0
:1040A0008C2F8F710E94B12559C0163008F056C070
:1040B000F7CF002339F08C2F8F710E946B254EC0F3
:1040C0000023C9F38C2F8F710E948C2547C00023D9
:1040D00029F08C2F8F710E94562540C00E945125D7
:1040E0003DC0002349F0CF718C2F0E946B2563E007
:1040F0008C2F0E94D72632C081E00E94E026123029
:1041000068F182E00E94E02629C0002331F01123EB
:1041100091F28D2F0E94E81D21C0112399F2D9330D
:1041200049F4FFEF27EE83E0F15020408040E1F7B3
:1041300000C000008D2F0E94AB1E10C04C2F4F708E
:104140006D2FC7010E94B1130E947C2414C04C2F14
:104150004F706D2FC7010E94B4130DC098E0B916BF
:1041600031F0B91640F086EF8B0D823020F40E94BA
:10417000B51C0E941B11DD20E1F00E94D32680FDBA
:1041800018C0F70112820E94CD260E946B25C7013C
:104190000E94E5200E94CD26DF91CF911F910F91C3
:1041A000FF90EF90DF90BF90AF909F908F900C9416
:1041B0008C25DF91CF911F910F91FF90EF90DF90B1
:1041C000BF90AF909F908F9008950F931F93CF93C0
:1041D000DF93EC01988189812B813C81232B31F085
:1041E0008F3F31F481E09F3F19F403C081E001C0AB
:1041F00080E080FD13C0CE010E943311882371F04E
:10420000688179818A810E94AA268C010E940826F1
:104210000E94F924B801CE010E94E51EDF91CF91E2
:104220001F910F9108950E9451270E9461270C94BD
:10423000FE2680916A0190916B010E9419280C94CE
:1042400013210E9441270C9419210E949F26E92FD7
:10425000E295EF704E2F50E0FA013297EE30F10503
:10426000B0F4E357FF4F0C94FA32803F91F018F40A
:10427000803E68F40EC0843F51F40BC0803E48F08D
:10428000813F29F406C093FB882780F9089580E0D8
:10429000089581E00895CF93DF9300D000D01F925E
:1042A000CDB7DEB70F900F900F900F900F90DF916A
:1042B000CF910895CF93DF9300D000D000D0CDB739
:1042C000DEB726960FB6F894DEBF0FBECDBFDF91E6
:1042D000CF9108951F93CF93DF93C091AA0216E068
:1042E0008091AB02C81799F0D0E01C9FF0011D9F90
:1042F000F00D1124E455FD4F40815181628173819D
:10430000848195810E945A212196C770E9CFDF915F
:10431000CF911F9108954091DC025091DD02609190
:10432000DE027091DF028091E0029091E1020C9434
:104330005A21CF938091E10282958F7009F05FC07E
:104340008091DE02882309F45AC08091AA02B091BC
:10435000AB027091DC02A091DD024091DF0250912E
:10436000E00291E07F3F09F090E0692FC6E08B17F3
:1043700009F445C04115510521F0AF3F21F020E07F
:1043800003C021E001C0262F90E020FD35C0C89F6A
:10439000F001C99FF00D1124E455FD4F21812A132E
:1043A0002BC02081271328C02281211125C0238101
:1043B00034812417350710F421503109241B350BA3
:1043C00024363105C8F42091E1022F70206120933A
:1043D000E10226E0289FF001299FF00D1124EF54FF
:1043E000FD4F80818F70806180838CED92E00E9410
:1043F000E520CF910C946A2101968770B8CFCF91B8
:104400000895AF92BF92CF92DF92EF92FF920F93F7
:104410001F93CF93DF93CDB7DEB761970FB6F894B4
:10442000DEBF0FBECDBF7C0185E0F701DE011D962A
:1044300001900D928A95E1F7D7014C9111965C910C
:10444000119712960C913091DC026091DD028091FF
:10445000DF029091E002009731F06F3F31F421E0EC
:104460003F3F19F403C021E001C020E0B22FB1703A
:10447000BB2E20FD40C1F701C380D480A090DE0296
:10448000AA2009F4F6C02091E102C816D90628F046
:10449000D601A81BB90BCD0104C0809590958C0D59
:1044A0009D1D11E08436910580F010E0207F09F019
:1044B000A6C07C2DD98AC88A602F89890E944B2189
:1044C0008CED92E00E94E5200EC1822F807F09F0E2
:1044D00053C0561314C0431312C0102F01110FC044
:1044E0002F7020612093E1020E948B218CED92E0DD
:1044F0000E94E5208091E102F70185833DC1CD282E
:1045000031F05F3F31F481E04F3F19F403C081E0A7
:1045100001C080E080FD03C081E0802702C080E010
:1045200090E0182F117080FF1CC08091AA0220918A
:10453000AB0236E0821709F4FCC090E0389FF0012E
:10454000399FF00D1124E455FD4F6181561306C0CB
:104550006081461303C06281061303C00196877011
:10456000E9CF102F002309F407C18091E102816097
:104570008093E10210E000C1561314C0431312C02F
:10458000011110C08091E102F7018583C7010E94EB
:10459000E52086E0F701ACEDB2E001900D928A953E
:1045A000E1F7C4C04D875E878D859E850E942521D9
:1045B000882379F1002369F12091E102822F82950D
:1045C0008F7090E0029774F08091DC029091DD0290
:1045D00098878F831986DB86CA862C87CE0107963B
:1045E0000E94E52086E0F701ACEDB2E001900D926B
:1045F0008A95E1F70E9499210E948B210DC05617E0
:1046000069F04D875E878D859E850E9425218111E9
:1046100019C0C7010E94E52011E0AEC04313F1CFDD
:104620000111EFCF8091E102F7018583C7010E945C
:10463000E52086E0ECEDF2E0DF011D928A95E9F7D6
:104640001A2D9AC0002329F32091E102822F82952E
:104650008F7090E0029734F28091DC029091DD023D
:104660009A8389831B82DD82CC822E83CE010196C0
:10467000B7CFC816D90628F0F601E81BF90BCF0111
:1046800004C0809590958C0D9D1D8436910548F051
:1046900010E07C2DD98AC88A602F89890E944B211D
:1046A00022C0102F002309F4B4CF56130BC04313BC
:1046B00009C086E0F701ACEDB2E001900D928A9559
:1046C000E1F75AC04D875E878D859E850E94252122
:1046D000811188CF8091E10281608093E102C7015E
:1046E0000E94E52049C0ECEDF2E086E0DF011D927A
:1046F0008A95E9F71BC0002309F48BCF4D875E87AD
:104700008D859E850E942521182F882309F481CF4D
:1047100086E0F701ACEDB2E001900D928A95E1F7E9
:104720008CED92E00E94E21D0E9499210E948B2153
:1047300023C04D875E878D859E850E949F26292FE9
:1047400022952F70223028F49F7039F0811105C016
:104750000BC0243028F49F7049F4805E883020F02C
:10476000C7010E94E520B12E1B2D06C0D70115966A
:104770009C91907F91F7F8CF812F61960FB6F894B6
:10478000DEBF0FBECDBFDF91CF911F910F91FF9084
:10479000EF90DF90CF90BF90AF9008951F93CF938D
:1047A000DF93CDB7DEB72C970FB6F894DEBF0FBE00
:1047B000CDBF4F83588769877A878B879C87CE01C7
:1047C00007960E9401228823D1F09F8188852A853F
:1047D0003B85232B31F08F3F31F481E09F3F19F46B
:1047E00003C081E001C080E080FD47C04F81588553
:1047F00069857A858B859C850E945A213EC086E01A
:10480000FE013796DE01119601900D928A95E1F72F
:10481000FF81E8856A857B856115710531F0EF3F81
:1048200031F481E0FF3F19F403C081E001C080E072
:1048300080FD23C02091AB0230E0C9010196877052
:1048400099274091AA0250E084179507F1F1F98366
:10485000EA837D836C8396E0929FD001939FB00D95
:104860001124A455BD4FFE01319601900D929A95E9
:10487000E1F78093AB020E946A2116E08091AA02C0
:104880009091AB02891771F1189FC00111248455D2
:104890009D4F0E940122882329F1E091AA021E9FC8
:1048A000F0011124E455FD4F4081518162817381F3
:1048B000848195810E945A218091AA0290E00196FC
:1048C000877099278093AA02D9CF0E942121109244
:1048D000AB021092AA02ECEDF2E086E0DF011D923D
:1048E0008A95E9F72C960FB6F894DEBF0FBECDBFC0
:1048F000DF91CF911F910895EF92FF920F931F9335
:10490000CF93DF938C01892B09F46CC0F12CEE243A
:10491000E394E8012196F8018491843740F48430CF
:1049200008F051C0813081F0823019F15BC08537C9
:1049300009F444C0A8F19CE7980F903708F052C0E2
:104940008F770E94AB1E41C00E5F1F4FFE01849106
:1049500090E2980F983050F48770FE2D01C0FF0F41
:104960008A95EAF78F2F0E94542714C00E94E81DF1
:104970002DC00E5F1F4FFE01849190E2980F98307A
:1049800060F48770FE2D01C0FF0F8A95EAF78F2F24
:104990000E945A270E94FE2619C00E94AB1E16C014
:1049A0000E5F1F4FFE01C491CC2381F08FE99FE081
:1049B0000197F1F700C00000C150F6CF0E5F1F4F06
:1049C000FE01F49003C00E94E81D8E018F2D882304
:1049D00009F49FCFEFE9FFE03197F1F700C0000045
:1049E0008150F5CFDF91CF911F910F91FF90EF9004
:1049F0000895089508950C94FA240C94FB240E94C1
:104A0000FD246093090370930A0380930B03909332
:104A10000C030C9413210C94FF240F931F9300910B
:104A2000090310910A0320910B0330910C03602BB2
:104A3000712B822B932B1F910F910C94FF240F93BA
:104A40001F930091090310910A0320910B033091E9
:104A50000C0360237123822393231F910F910C94E5
:104A6000FF240F931F930091090310910A032091D3
:104A70000B0330910C0360277127822793271F9126
:104A80000F910C94FF240C94FA240E944325609308
:104A900005037093060380930703909308030C9417
:104AA000132160E070E0CB010C9445250F931F9318
:104AB00041E050E060E070E08A019B0104C0000F1B
:104AC000111F221F331F8A95D2F7C901B8011F9108
:104AD0000F910C9445250F931F9341E050E060E047
:104AE00070E004C0440F551F661F771F8A95D2F7E8
:104AF0008091050390910603A0910703B0910803EC
:104B00008A019B01082B192B2A2B3B2BC901B801C9
:104B10001F910F910C9445250F931F9341E050E096
:104B200060E070E004C0440F551F661F771F8A9530
:104B3000D2F74095509560957095809105039091BE
:104B40000603A0910703B09108038A019B01082383
:104B500019232A233B23C901B8011F910F910C94FB
:104B600045250F931F9341E050E060E070E004C0E2
:104B7000440F551F661F771F8A95D2F78091050352
:104B800090910603A0910703B09108038A019B014D
:104B9000082719272A273B27C901B8011F910F9120
:104BA0000C9445250F931F93009105031091060364
:104BB0002091070330910803602B712B822B932BDC
:104BC0001F910F910C9445250F931F93009105039E
:104BD000109106032091070330910803602371238D
:104BE000822393231F910F910C9445250F931F93BC
:104BF00000910503109106032091070330910803EB
:104C000060277127822793271F910F910C944525C8
:104C1000089527E0929F800D1124E82FE695E695F0
:104C2000E695877051E001C0550F8A95EAF785E057
:104C3000E89FF0011124EE51FD4F20E030E070E0DC
:104C40004081CB01022E02C0969587950A94E2F727
:104C50008170819584278523842781932F5F3F4F1F
:104C60002530310569F7089527E0929F800D1124C2
:104C7000682F669566956695982F977085E0689F72
:104C8000B001112440E050E080E0FB01E40FF51F8B
:104C9000EE51FD4F208130E0092E02C03695279558
:104CA0000A94E2F721703327042E01C0220F0A94E0
:104CB000EAF7822B4F5F5F4F4530510531F708957A
:104CC000CF92DF92EF92FF920F931F93CF93DF93D8
:104CD0008C01C0900503D0900603E0900703F0908C
:104CE00008038091090390910A03A0910B03B091EE
:104CF0000C03C82AD92AEA2AFB2ACFE1D0E0D7013F
:104D0000C6010C2E04C0B695A795979587950A9471
:104D1000D2F780FD04C0219790F780E007C0B8016A
:104D20008C2F0E94D0130197B1F38C2FDF91CF917C
:104D30001F910F91FF90EF90DF90CF900895CF9348
:104D4000DF93EC010E946026BE010E94D013DF9128
:104D5000CF9108951F93CF93DF93EB019091A90218
:104D6000992321F0CB010E949F2613C0882349F08C
:104D7000CB010E946026182F682FCE010E940926C1
:104D800004C0CB010E943426182FBE01812F0E943F
:104D9000D013DF91CF911F91089580910D038595D8
:104DA00085958595089580910D038770089598E005
:104DB000899F90011124262B20930D030C946B25C1
:104DC00020910D038095822380930D03982F977077
:104DD00069F430E0482F082E000C550B24173507D6
:104DE00029F08595859585950C948C25089590914D
:104DF0000D03977081E009F480E00895E0916A0165
:104E0000F0916B01809119038083E0916A01F09128
:104E10006B01908180911803892B8083E0916A0156
:104E2000F0916B01908180911703892B8083809191
:104E30000E03882381F0E0916A01F0916B0190816B
:104E4000892B808380916A0190916B010E94E227F7
:104E5000811110920E0380916A0190916B010C9464
:104E6000C11C80911903089590911903892B809397
:104E7000190308958095909119038923809319034C
:104E8000089510921903089590911803892B809327
:104E9000180308958095909118038923809318032F
:104EA000089510921803089590911703892B809309
:104EB0001703089580959091170389238093170312
:104EC000089510921703089580930E030895109289
:104ED0000E03089580910E03089580E090E00E94F3
:104EE000123621E08D3E9E4F09F020E0822F08957A
:104EF00082E090E00C94043683E090E00C94043659
:104F0000682F83E090E00C94183684E090E00C94D5
:104F10000436682F84E090E00C941836AB01BC0195
:104F20008FE090E00C942A36AB01BC0183E190E065
:104F30000C942A3660E070E0CB010C94942760E07A
:104F400070E0CB010E948E270C949A276DEE7EEFC5
:104F500080E090E00E94363660E082E090E00E94BF
:104F6000183660E083E090E00E9418361092090342
:104F700010920A0310920B0310920C0360E084E07D
:104F800090E00E94183660E085E090E00E941836BC
:104F900060E086E090E00E9418366FEF87E090E0D6
:104FA0000E94183640E050E0BA0188E090E00E948C
:104FB0002A3660E08DE090E00E9418360C949F271E
:104FC0000C94A627FC01329697E080E0915029F0DE
:104FD00021912223D9F38F5FF9CF08959C01FC0121
:104FE00032969FEF80E04191461789F09F3F19F478
:104FF000411101C0982F8F5F8630A9F79F3F39F08C
:10500000F901E90FF11D97FDFA956283089508955E
:105010009C012A5F3F4FFC014281461301C012826E
:10502000019682179307B9F708950C94EE270C9414
:105030000828029626E0FC0111922A95E9F70895C6
:1050400008950C9420280C942028CF930E942328A4
:105050000E94400E0E942128C0E08C2F0E94A70EC3
:10506000811104C0CF5FC830C1F701C081E0CF918A
:1050700008950C9420280C9439280E943B28809194
:105080000804843049F110921B0320E488E190E089
:105090000FB6F894A895809360000FBE209360002F
:1050A00080E00E941B110E943B2883B7817F8460AF
:1050B00083BF83B7816083BF7894889583B78E7FE1
:1050C00083BF0FB6F894A8958091600088618093A3
:1050D0006000109260000FBE08950C9420280E947A
:1050E00021210E94B51C0E941B110C946D281F9257
:1050F0000F920FB60F9211248F939F93AF93BF938C
:1051000080911B03811113C08091FE039091FF03D6
:10511000A0910004B09101044196A11DB11D80939E
:10512000FE039093FF03A0930004B0930104BF918A
:10513000AF919F918F910F900FBE0F901F90189578
:1051400082E084BD93E095BD9AEF97BD80936E0099
:1051500008952FB7F8948091FE039091FF03A091DA
:105160000004B09101042FBF0895CF92DF92EF9217
:10517000FF920F931F932FB7F8944091FE03509125
:10518000FF0360910004709101042FBF6A017B014D
:10519000EE24FF248C0120E030E0C016D106E206A8
:1051A000F30610F4415051099A01281B390BC9012B
:1051B0001F910F91FF90EF90DF90CF90089578941A
:1051C0001F920F920FB60F9211248F939F93AF935C
:1051D000BF938091FE039091FF03A0910004B091D2
:1051E00001040196A11DB11D8093FE039093FF035E
:1051F000A0930004B0930104BF91AF919F918F9150
:105200000F900FBE0F901F90189587E797E7909328
:105210000108809300089AE088E10FB6F894A895F9
:10522000809360000FBE90936000FFCF0E946D27B7
:10523000811102C00E94E0270E94782780931A0300
:105240000E94852790E090930304809302040E94BB
:105250007C27682F70E080E090E00C940B25809113
:105260002403089508950895CF93DF93EC010E94DD
:10527000CE2A823011F0843039F581E08093E90044
:105280008FEF9091E800815095FD06C095ED9A95BD
:10529000F1F700008111F5CF8091E80085FF14C07F
:1052A00040E050E068E070E0CE010E94EB2A80917F
:1052B000E8008E778093E80088E0FE01ACE1B3E07F
:1052C00001900D928A95E1F7DF91CF9108950895AD
:1052D00080910704811109C00E947C2C0E94D92C66
:1052E0008091E20084608093E200089510920704A8
:1052F0000895089508950C946F2842E061EC81E0D0
:105300000C94F52B80910A04833009F453C030F4D7
:10531000813071F0823009F48CC008958A3009F42C
:1053200078C08B3009F45EC0893009F09AC020C083
:1053300080910904813A09F094C08091E800877F48
:105340008093E80080910D0490910E04892B21F444
:1053500068E08CE193E003C060E080E090E070E002
:105360000E94362B8091E8008B778093E8000895A7
:1053700080910904813209F074C080910D049091EC
:105380000E04892B09F06DC08091E800877F80931F
:10539000E8008091E80082FD05C080910804811139
:1053A000F8CF5FC08091F100809324038091E800E2
:1053B0008B7753C080910904813A09F052C08091E3
:1053C0000D0490910E04892B09F04BC08091E800E8
:1053D000877F8093E8008091E80080FFFCCF809178
:1053E000760136C0809109048132D9F580910D048F
:1053F00090910E04892BA9F58091E800877F809316
:10540000E8000E942A2C80910B04809376010C9472
:10541000212180910904813221F58091E800877F64
:105420008093E8000E942A2C80910C04809325032D
:10543000089580910904813AA1F48091E800877F62
:105440008093E8008091E80080FFFCCF80912503E5
:105450008093F1008091E8008E778093E8000C94AF
:105460002A2C089584B7877F84BF0FB6F894A89537
:1054700080916000886180936000109260000FBE90
:1054800080E880936100109261000E94FF1C0E94DE
:105490007C2C0E94D92C8091E20084608093E200F1
:1054A00078940E946E2F0E94051D8CE691E00E9468
:1054B000B01C80910804853069F40E943D288091D9
:1054C00006048823B1F30E942528882391F30E94C3
:1054D000D52AEFCF0E940D1D0E943B1CEACF0C94F1
:1054E000712A292F332723303105C1F058F4213098
:1054F000310579F022303105C1F582E290E026E8ED
:105500003FE037C02132310511F12232310531F14E
:105510002CC082E190E028EA3FE02BC0992781303F
:10552000910561F040F08230910559F00397E9F45C
:10553000ECE5FFE008C0E2E8FFE005C0E0E7FFE0DF
:1055400002C0E2E6FFE0849190E09F0112C0672B69
:1055500061F489E090E028E93FE00BC0672B29F473
:1055600080E490E02AEB3FE004C080E090E020E09F
:1055700030E0FA013183208308950895CF93C82F36
:105580000E94BD2AC0932603CF91089580910804FC
:10559000843011F081E0089582E00895809126031F
:1055A000811102C00C94C62A089580E189BD82E170
:1055B00089BD09B400FEFDCF8091D8008F7D809316
:1055C000D8008091E00082608093E0008091E0004C
:1055D00081FDFCCF0895CF92DF92EF92FF920F935F
:1055E0001F93CF93DF93EC018B017A010E94492C2A
:1055F000811133C0E114F10439F0F7018081918108
:10560000081B190BC80FD91FC12CD12C011511056E
:1056100019F18091E80085FD16C08091E8008E7731
:105620008093E800E114F10449F0F7018081918151
:10563000C80ED91ED182C08285E00FC00E94492CBD
:10564000882321F30AC089918093F1000150110948
:10565000FFEFCF1ADF0ADACF80E0DF91CF911F9101
:105660000F91FF90EF90DF90CF90089520910F045D
:10567000309110042617370748F06115710539F489
:105680002091E8002E772093E80001C0B901FC01C9
:1056900020E06115710579F1809108048823F1F10A
:1056A0008530F1F18091E80083FD3CC08091E800F5
:1056B00082FD2EC08091E80080FFEBCF2091F300A7
:1056C0008091F20090E0922B6115710551F08830C5
:1056D000910538F421912093F100615071090196F0
:1056E000F3CF21E0089709F020E08091E8008E7761
:1056F0008093E800CECF2111CFCF0AC0809108045B
:10570000882361F0853061F08091E80083FD0AC054
:105710008091E80082FFF2CF80E0089582E0089552
:1057200083E0089581E0089520910F0430911004E2
:105730002617370748F06115710539F42091E80004
:105740002E772093E80001C0B901FC0120E061152B
:10575000710591F180910804882309F440C08530D7
:1057600009F43FC08091E80083FD3DC08091E800CE
:1057700082FD2FC08091E80080FFE9CF2091F300E7
:105780008091F20090E0922B6115710559F08830FC
:10579000910540F424912093F100319661507109F4
:1057A0000196F2CF21E0089709F020E08091E8000F
:1057B0008E778093E800CBCF2111CCCF0AC08091A7
:1057C0000804882361F0853061F08091E80083FD52
:1057D0000AC08091E80082FFF2CF80E0089582E065
:1057E000089583E0089581E00895982F973068F533
:1057F0009093E900981739F07091EC002091ED003A
:105800005091F00003C0242F762F50E021FD02C0FC
:105810009F5FECCF3091EB003E7F3093EB003091F7
:10582000ED003D7F3093ED003091EB00316030931F
:10583000EB007093EC002093ED005093F00020916A
:10584000EE0027FDE5CF80E008958F708093E9009A
:1058500081E008958091090487FF11C08091E800DC
:1058600082FD05C0809108048111F8CF11C080919C
:10587000E8008B770BC080910804882349F0809161
:10588000E80080FFF8CF8091E8008E778093E800F1
:1058900008952091E4003091E50095E64091EC00F8
:1058A000842F817040FF23C08091E80080FD1DC0DF
:1058B00080910804882399F0853099F08091EB005D
:1058C00085FD11C04091E4005091E5002417350793
:1058D00029F3915011F09A01E1CF84E0089582E01C
:1058E000089583E0089581E0089580E0089540914F
:1058F000E80042FFDDCF08950E94EA2C0E94F22CBE
:10590000E0EEF0E0808181608083E8EDF0E080816E
:105910008F77808319BCA7EDB0E08C918E7F8C933C
:1059200080818F7E80831092070408950F931F93C8
:10593000CF93DF930E94EA2C0E94F22CC8EDD0E0B6
:1059400088818F77888388818068888388818F7D2C
:10595000888319BC10920804109204041092060463
:105960001092050400EE10E0F80180818B7F8083A7
:1059700088818160888342E060E080E00E94F52BAE
:10598000E1EEF0E080818E7F8083E2EEF0E08081C6
:1059900081608083808188608083F80180818E7F30
:1059A0008083888180618883DF91CF911F910F91DF
:1059B0000895E8EDF0E080818F7E8083E7EDF0E0F0
:1059C00080818160808384E082BF81E080930704CE
:1059D0000C94962CE8EDF0E080818E7F808310920D
:1059E000E20008951092DA001092E10008951F92EB
:1059F0000F920FB60F9211242F933F934F935F9303
:105A00006F937F938F939F93AF93BF93EF93FF9386
:105A10008091E10082FF0BC08091E20082FF07C00D
:105A20008091E1008B7F8093E1000E946D2F809137
:105A3000DA0080FF1FC08091D80080FF1BC08091DA
:105A4000DA008E7F8093DA008091D90080FF0DC04C
:105A500080E189BD82E189BD09B400FEFDCF81E00E
:105A6000809308040E94682905C019BC109208049C
:105A70000E9476298091E10080FF19C08091E200A8
:105A800080FF15C08091E2008E7F8093E2008091BC
:105A9000E20080618093E2008091D8008062809370
:105AA000D80019BC85E0809308040E947A2980916F
:105AB000E10084FF30C08091E20084FF2CC080E1CF
:105AC00089BD82E189BD09B400FEFDCF8091D80077
:105AD0008F7D8093D8008091E1008F7E8093E100DC
:105AE0008091E2008F7E8093E2008091E2008160ED
:105AF0008093E20080910404882311F084E007C0C1
:105B00008091E30087FD02C081E001C083E08093C3
:105B100008040E947B298091E10083FF29C08091C5
:105B2000E20083FF25C08091E100877F8093E10040
:105B300082E080930804109204048091E1008E7F3B
:105B40008093E1008091E2008E7F8093E20080915B
:105B5000E20080618093E20042E060E080E00E9429
:105B6000F52B8091F00088608093F0000E947929E5
:105B7000FF91EF91BF91AF919F918F917F916F9125
:105B80005F914F913F912F910F900FBE0F901F90FB
:105B900018951F920F920FB60F9211242F933F93D7
:105BA0004F935F936F937F938F939F93AF93BF9325
:105BB000CF93DF93EF93FF93C091E900CF70809173
:105BC000EC00D82FD17080FDD0E81092E9008091D0
:105BD000F000877F8093F00078940E940D2E109241
:105BE000E9008091F00088608093F000CD2BCF70A9
:105BF000C093E900FF91EF91DF91CF91BF91AF91F9
:105C00009F918F917F916F915F914F913F912F91D4
:105C10000F900FBE0F901F9018951F93CF93DF9397
:105C2000CDB7DEB7AA970FB6F894DEBF0FBECDBFD3
:105C3000E9E0F4E08091F100819324E0E131F207A2
:105C4000C9F70E9482298091E80083FF2EC18091CC
:105C5000090490910A04492F50E04A30510508F098
:105C600024C1FA01E556FF4F0C94FA32803821F036
:105C7000823809F01AC108C0809105049091060489
:105C8000992389F082600FC080910D048F70873056
:105C900008F00BC18093E9008091EB0085FB882719
:105CA00080F91092E9009091E800977F9093E800C6
:105CB0008093F1001092F100D1C0282F2D7F09F0C0
:105CC000F4C0882319F0823061F0EFC080910B049A
:105CD000813009F0EAC0933009F080E08093060437
:105CE0002EC080910B0481112AC080910D048F7009
:105CF0002FEF280F263008F0D8C08093E9002091BC
:105D0000EB0020FF1CC0933021F48091EB008062F7
:105D100014C09091EB0090619093EB0021E030E093
:105D2000A90102C0440F551F8A95E2F74093EA008B
:105D30001092EA008091EB0088608093EB00109253
:105D4000E9008091E800877F8093E8000E942A2C78
:105D5000ACC08111AAC010910B041F778091E300A1
:105D60008078812B8093E3008091E800877F809387
:105D7000E8000E942A2C8091E80080FFFCCF8091EF
:105D8000E30080688093E300111102C082E001C04B
:105D900083E08093080489C08058823008F085C071
:105DA00080910B0490910C048C3D53E0950779F59C
:105DB00083E08A838AE289834FB7F894DE011396E1
:105DC00020E03EE051E2E32FF0E050935700E491F1
:105DD00020FF03C0E295EF703F5FEF708E2F90E0E1
:105DE000EA3010F0C79601C0C0968D939D932F5F47
:105DF000243149F74FBF8091E800877F8093E80006
:105E00006AE270E0CE0101960E94362B16C06091C6
:105E10000D0470910E04AE014F5F5F4F0E946F2A18
:105E2000BC01892B09F441C09091E800977F9093C1
:105E3000E80089819A810E94942B8091E8008B77F9
:105E40008093E80032C0803881F58091E800877F38
:105E50008093E800809104048093F1008091E80031
:105E60008E7772CF811121C080910B0490910C0428
:105E700099270297D4F48091E800877F8093E80007
:105E800080910B04809304040E942A2C80910404C6
:105E9000811106C08091E30087FD02C081E001C04E
:105EA00084E0809308040E947D298091E80083FFAC
:105EB0000AC08091E800877F8093E8008091EB0022
:105EC00080628093EB00AA960FB6F894DEBF0FBEF7
:105ED000CDBFDF91CF911F9108950895CF93809109
:105EE00008048823A1F0C091E900CF709091EC00E4
:105EF000892F817090FD80E8C82B1092E900809175
:105F0000E80083FD0E940D2ECF70C093E900CF9171
:105F100008955058BB27AA270E94A12F0C944C31FA
:105F20000E943E3138F00E94453120F039F49F3F05
:105F300019F426F40C9414310EF4E095E7FB0C945C
:105F40000E31E92F0E945D3158F3BA1762077307CB
:105F50008407950720F079F4A6F50C947F310EF4B0
:105F6000E0950B2EBA2FA02D0B01B90190010C0169
